{
  "contractName": "Mortal",
  "abi": [
    {
      "constant": false,
      "inputs": [],
      "name": "destroy",
      "outputs": [],
      "payable": false,
      "stateMutability": "nonpayable",
      "type": "function"
    }
  ],
  "bytecode": "0x608060405233600160006101000a81548173ffffffffffffffffffffffffffffffffffffffff021916908373ffffffffffffffffffffffffffffffffffffffff160217905550734f96fe3b7a6cf9725f59d353f723c1bdb64ca6aa6000806101000a81548173ffffffffffffffffffffffffffffffffffffffff021916908373ffffffffffffffffffffffffffffffffffffffff16021790555061033a806100a86000396000f3fe608060405234801561001057600080fd5b506004361061002b5760003560e01c806383197ef014610030575b600080fd5b61003861003a565b005b600160009054906101000a900473ffffffffffffffffffffffffffffffffffffffff1673ffffffffffffffffffffffffffffffffffffffff163373ffffffffffffffffffffffffffffffffffffffff16146100e0576040517f08c379a000000000000000000000000000000000000000000000000000000000815260040180806020018281038252602e8152602001806102d8602e913960400191505060405180910390fd5b6000809054906101000a900473ffffffffffffffffffffffffffffffffffffffff1673ffffffffffffffffffffffffffffffffffffffff1663a9059cbb600160009054906101000a900473ffffffffffffffffffffffffffffffffffffffff166000809054906101000a900473ffffffffffffffffffffffffffffffffffffffff1673ffffffffffffffffffffffffffffffffffffffff166370a08231306040518263ffffffff1660e01b8152600401808273ffffffffffffffffffffffffffffffffffffffff1673ffffffffffffffffffffffffffffffffffffffff16815260200191505060206040518083038186803b1580156101de57600080fd5b505afa1580156101f2573d6000803e3d6000fd5b505050506040513d602081101561020857600080fd5b81019080805190602001909291905050506040518363ffffffff1660e01b8152600401808373ffffffffffffffffffffffffffffffffffffffff1673ffffffffffffffffffffffffffffffffffffffff16815260200182815260200192505050602060405180830381600087803b15801561028257600080fd5b505af1158015610296573d6000803e3d6000fd5b505050506040513d60208110156102ac57600080fd5b8101908080519060200190929190505050503373ffffffffffffffffffffffffffffffffffffffff16fffe4f6e6c792074686520636f6e7472616374206f776e65722063616e2063616c6c20746869732066756e6374696f6ea265627a7a723158204f5fedd4ff52618c3f7d7786d4a24ee05a93fe8e17a492a9281ba99af10d0e4d64736f6c63430005100032",
  "source": "pragma solidity ^0.5.9;\n\nimport \"./Owned.sol\";\n\ncontract Mortal is Owned {\n  /// @notice only Owner can shutdown this contract\n  function destroy() public onlyOwner {\n    daitoken.transfer(owner, daitoken.balanceOf(address(this)));\n    selfdestruct(msg.sender);\n  }\n}",
  "sourcePath": "/Users/alexandrebarros/Documents/Code/GBC/dApp2/Capstone/Code/stop-loss/contracts/Mortal.sol",
  "compiler": {
    "name": "solc",
    "version": "0.5.16+commit.9c3226ce.Emscripten.clang"
  },
  "schemaVersion": "3.4.3",
  "updatedAt": "2021-08-25T19:41:30.908Z",
  "devdoc": {
    "methods": {}
  },
  "userdoc": {
    "methods": {
      "destroy()": {
        "notice": "only Owner can shutdown this contract"
      }
    }
  }
}